{
  "contractName": "AddSkype",
  "abi": [
    {
      "constant": true,
      "inputs": [
        {
          "name": "",
          "type": "address"
        }
      ],
      "name": "users_skypes",
      "outputs": [
        {
          "name": "",
          "type": "string"
        }
      ],
      "payable": false,
      "stateMutability": "view",
      "type": "function"
    },
    {
      "inputs": [],
      "payable": false,
      "stateMutability": "nonpayable",
      "type": "constructor"
    },
    {
      "constant": false,
      "inputs": [
        {
          "name": "tmpSkype",
          "type": "string"
        }
      ],
      "name": "setSkype",
      "outputs": [],
      "payable": false,
      "stateMutability": "nonpayable",
      "type": "function"
    }
  ],
  "bytecode": "0x6060604052341561000f57600080fd5b33600160006101000a81548173ffffffffffffffffffffffffffffffffffffffff021916908373ffffffffffffffffffffffffffffffffffffffff1602179055506103378061005f6000396000f30060606040526004361061004c576000357c0100000000000000000000000000000000000000000000000000000000900463ffffffff168063448c1dd114610051578063ea4a9364146100ae575b600080fd5b341561005c57600080fd5b6100ac600480803590602001908201803590602001908080601f01602080910402602001604051908101604052809392919081815260200183838082843782019150505050505091905050610160565b005b34156100b957600080fd5b6100e5600480803573ffffffffffffffffffffffffffffffffffffffff169060200190919050506101b6565b6040518080602001828103825283818151815260200191508051906020019080838360005b8381101561012557808201518184015260208101905061010a565b50505050905090810190601f1680156101525780820380516001836020036101000a031916815260200191505b509250505060405180910390f35b806000803373ffffffffffffffffffffffffffffffffffffffff1673ffffffffffffffffffffffffffffffffffffffff16815260200190815260200160002090805190602001906101b2929190610266565b5050565b60006020528060005260406000206000915090508054600181600116156101000203166002900480601f01602080910402602001604051908101604052809291908181526020018280546001816001161561010002031660029004801561025e5780601f106102335761010080835404028352916020019161025e565b820191906000526020600020905b81548152906001019060200180831161024157829003601f168201915b505050505081565b828054600181600116156101000203166002900490600052602060002090601f016020900481019282601f106102a757805160ff19168380011785556102d5565b828001600101855582156102d5579182015b828111156102d45782518255916020019190600101906102b9565b5b5090506102e291906102e6565b5090565b61030891905b808211156103045760008160009055506001016102ec565b5090565b905600a165627a7a723058204a8ed30eb14516268d196bda73302ea7d9070a432ca7173c01f20f9bd88bc8330029",
  "source": "pragma solidity ^0.4.16;\n\ncontract AddSkype {\n    mapping (address => string) public users_skypes;\n    address private owner;\n    function AddSkype() public {\n        owner = msg.sender;\n    }\n    function setSkype(string tmpSkype) public {\n        users_skypes[msg.sender] = tmpSkype;\n    }  \n}\n",
  "sourcePath": "/media/paul/2TBDrive/Projects2018/BlockchainTutors/TruffleWorkspace/contracts/AddSkype/AddSkype.sol",
  "compiler": {
    "name": "solc",
    "version": "0.4.19+commit.c4cbbb05.Emscripten.clang"
  },
  "schemaVersion": "2.0.0",
  "updatedAt": "2018-03-25T20:35:44.642Z"
}