{
  "contractName": "CreateTutor",
  "abi": [
    {
      "constant": true,
      "inputs": [
        {
          "name": "",
          "type": "uint32"
        }
      ],
      "name": "tutors_lookup",
      "outputs": [
        {
          "name": "",
          "type": "address"
        }
      ],
      "payable": false,
      "stateMutability": "view",
      "type": "function"
    },
    {
      "constant": true,
      "inputs": [],
      "name": "current_numbner_of_tutors",
      "outputs": [
        {
          "name": "",
          "type": "uint32"
        }
      ],
      "payable": false,
      "stateMutability": "view",
      "type": "function"
    },
    {
      "constant": true,
      "inputs": [
        {
          "name": "",
          "type": "address"
        }
      ],
      "name": "tutors",
      "outputs": [
        {
          "name": "name",
          "type": "string"
        },
        {
          "name": "capableOfTutoring",
          "type": "string"
        },
        {
          "name": "website",
          "type": "string"
        },
        {
          "name": "ipfsLink",
          "type": "string"
        },
        {
          "name": "email",
          "type": "string"
        },
        {
          "name": "balance",
          "type": "uint256"
        }
      ],
      "payable": false,
      "stateMutability": "view",
      "type": "function"
    },
    {
      "constant": true,
      "inputs": [],
      "name": "owner",
      "outputs": [
        {
          "name": "",
          "type": "address"
        }
      ],
      "payable": false,
      "stateMutability": "view",
      "type": "function"
    },
    {
      "inputs": [],
      "payable": false,
      "stateMutability": "nonpayable",
      "type": "constructor"
    },
    {
      "constant": false,
      "inputs": [
        {
          "name": "tmpName",
          "type": "string"
        },
        {
          "name": "tmpCapableOfTutoring",
          "type": "string"
        },
        {
          "name": "tmpWebsite",
          "type": "string"
        },
        {
          "name": "tmpIpfsLink",
          "type": "string"
        },
        {
          "name": "tmpEmail",
          "type": "string"
        }
      ],
      "name": "createNewTutor",
      "outputs": [],
      "payable": true,
      "stateMutability": "payable",
      "type": "function"
    },
    {
      "constant": false,
      "inputs": [
        {
          "name": "tmpName",
          "type": "string"
        }
      ],
      "name": "setName",
      "outputs": [],
      "payable": false,
      "stateMutability": "nonpayable",
      "type": "function"
    },
    {
      "constant": false,
      "inputs": [
        {
          "name": "tmpCapableOfTutoring",
          "type": "string"
        }
      ],
      "name": "setCapableOfTutoring",
      "outputs": [],
      "payable": false,
      "stateMutability": "nonpayable",
      "type": "function"
    },
    {
      "constant": false,
      "inputs": [
        {
          "name": "tmpWebsite",
          "type": "string"
        }
      ],
      "name": "setWebsite",
      "outputs": [],
      "payable": false,
      "stateMutability": "nonpayable",
      "type": "function"
    },
    {
      "constant": false,
      "inputs": [
        {
          "name": "tmpIpfsLink",
          "type": "string"
        }
      ],
      "name": "setIpfsLink",
      "outputs": [],
      "payable": false,
      "stateMutability": "nonpayable",
      "type": "function"
    },
    {
      "constant": false,
      "inputs": [
        {
          "name": "tmpEmail",
          "type": "string"
        }
      ],
      "name": "setEmail",
      "outputs": [],
      "payable": false,
      "stateMutability": "nonpayable",
      "type": "function"
    }
  ],
  "bytecode": "0x60606040526000600260006101000a81548163ffffffff021916908363ffffffff160217905550341561003157600080fd5b33600260046101000a81548173ffffffffffffffffffffffffffffffffffffffff021916908373ffffffffffffffffffffffffffffffffffffffff160217905550610c70806100816000396000f3006060604052600436106100a4576000357c0100000000000000000000000000000000000000000000000000000000900463ffffffff168063282b065a146100a9578063701af75e1461010657806371c151f31461016f5780638224a341146101a45780638da5cb5b1461049e578063b93f923f146104f3578063c47f002714610651578063d5a2f0b4146106ae578063e7bb81781461070b578063f87f44b914610768575b600080fd5b34156100b457600080fd5b610104600480803590602001908201803590602001908080601f016020809104026020016040519081016040528093929190818152602001838380828437820191505050505050919050506107c5565b005b341561011157600080fd5b61012d600480803563ffffffff1690602001909190505061081e565b604051808273ffffffffffffffffffffffffffffffffffffffff1673ffffffffffffffffffffffffffffffffffffffff16815260200191505060405180910390f35b341561017a57600080fd5b610182610851565b604051808263ffffffff1663ffffffff16815260200191505060405180910390f35b34156101af57600080fd5b6101db600480803573ffffffffffffffffffffffffffffffffffffffff16906020019091905050610867565b60405180806020018060200180602001806020018060200187815260200186810386528c81815460018160011615610100020316600290048152602001915080546001816001161561010002031660029004801561027a5780601f1061024f5761010080835404028352916020019161027a565b820191906000526020600020905b81548152906001019060200180831161025d57829003601f168201915b505086810385528b8181546001816001161561010002031660029004815260200191508054600181600116156101000203166002900480156102fd5780601f106102d2576101008083540402835291602001916102fd565b820191906000526020600020905b8154815290600101906020018083116102e057829003601f168201915b505086810384528a8181546001816001161561010002031660029004815260200191508054600181600116156101000203166002900480156103805780601f1061035557610100808354040283529160200191610380565b820191906000526020600020905b81548152906001019060200180831161036357829003601f168201915b50508681038352898181546001816001161561010002031660029004815260200191508054600181600116156101000203166002900480156104035780601f106103d857610100808354040283529160200191610403565b820191906000526020600020905b8154815290600101906020018083116103e657829003601f168201915b50508681038252888181546001816001161561010002031660029004815260200191508054600181600116156101000203166002900480156104865780601f1061045b57610100808354040283529160200191610486565b820191906000526020600020905b81548152906001019060200180831161046957829003601f168201915b50509b50505050505050505050505060405180910390f35b34156104a957600080fd5b6104b161089e565b604051808273ffffffffffffffffffffffffffffffffffffffff1673ffffffffffffffffffffffffffffffffffffffff16815260200191505060405180910390f35b61064f600480803590602001908201803590602001908080601f0160208091040260200160405190810160405280939291908181526020018383808284378201915050505050509190803590602001908201803590602001908080601f0160208091040260200160405190810160405280939291908181526020018383808284378201915050505050509190803590602001908201803590602001908080601f0160208091040260200160405190810160405280939291908181526020018383808284378201915050505050509190803590602001908201803590602001908080601f0160208091040260200160405190810160405280939291908181526020018383808284378201915050505050509190803590602001908201803590602001908080601f016020809104026020016040519081016040528093929190818152602001838380828437820191505050505050919050506108c4565b005b341561065c57600080fd5b6106ac600480803590602001908201803590602001908080601f01602080910402602001604051908101604052809392919081815260200183838082843782019150505050505091905050610a3b565b005b34156106b957600080fd5b610709600480803590602001908201803590602001908080601f01602080910402602001604051908101604052809392919081815260200183838082843782019150505050505091905050610a94565b005b341561071657600080fd5b610766600480803590602001908201803590602001908080601f01602080910402602001604051908101604052809392919081815260200183838082843782019150505050505091905050610aed565b005b341561077357600080fd5b6107c3600480803590602001908201803590602001908080601f01602080910402602001604051908101604052809392919081815260200183838082843782019150505050505091905050610b46565b005b806000803373ffffffffffffffffffffffffffffffffffffffff1673ffffffffffffffffffffffffffffffffffffffff168152602001908152602001600020600401908051906020019061081a929190610b9f565b5050565b60016020528060005260406000206000915054906101000a900473ffffffffffffffffffffffffffffffffffffffff1681565b600260009054906101000a900463ffffffff1681565b6000602052806000526040600020600091509050806000019080600101908060020190806003019080600401908060050154905086565b600260049054906101000a900473ffffffffffffffffffffffffffffffffffffffff1681565b60008060003373ffffffffffffffffffffffffffffffffffffffff1673ffffffffffffffffffffffffffffffffffffffff16815260200190815260200160002090508581600001908051906020019061091e929190610b9f565b5084816001019080519060200190610937929190610b9f565b5083816002019080519060200190610950929190610b9f565b5082816003019080519060200190610969929190610b9f565b5081816004019080519060200190610982929190610b9f565b50600081600501819055503360016000600260009054906101000a900463ffffffff1663ffffffff1663ffffffff16815260200190815260200160002060006101000a81548173ffffffffffffffffffffffffffffffffffffffff021916908373ffffffffffffffffffffffffffffffffffffffff1602179055506001600260009054906101000a900463ffffffff1601600260006101000a81548163ffffffff021916908363ffffffff160217905550505050505050565b806000803373ffffffffffffffffffffffffffffffffffffffff1673ffffffffffffffffffffffffffffffffffffffff1681526020019081526020016000206000019080519060200190610a90929190610b9f565b5050565b806000803373ffffffffffffffffffffffffffffffffffffffff1673ffffffffffffffffffffffffffffffffffffffff1681526020019081526020016000206001019080519060200190610ae9929190610b9f565b5050565b806000803373ffffffffffffffffffffffffffffffffffffffff1673ffffffffffffffffffffffffffffffffffffffff1681526020019081526020016000206003019080519060200190610b42929190610b9f565b5050565b806000803373ffffffffffffffffffffffffffffffffffffffff1673ffffffffffffffffffffffffffffffffffffffff1681526020019081526020016000206002019080519060200190610b9b929190610b9f565b5050565b828054600181600116156101000203166002900490600052602060002090601f016020900481019282601f10610be057805160ff1916838001178555610c0e565b82800160010185558215610c0e579182015b82811115610c0d578251825591602001919060010190610bf2565b5b509050610c1b9190610c1f565b5090565b610c4191905b80821115610c3d576000816000905550600101610c25565b5090565b905600a165627a7a723058202a3675296434003b317985385b501211b5e0c72009cc921605539e610f02de610029",
  "source": "pragma solidity ^0.4.16;\ncontract CreateTutor {\n    \n    struct Tutor {\n        string name;\n        string capableOfTutoring;\n        string website;\n        string ipfsLink;\n        string email;\n        uint balance;\n    }\n\n    mapping (address => Tutor) public tutors;\n    mapping (uint32 => address) public tutors_lookup;\n    uint32 public current_numbner_of_tutors = 0;\n    address public owner;\n    \n    \n    function CreateTutor() public {\n        owner = msg.sender;\n    }\n    function createNewTutor(\n        string tmpName,\n        string tmpCapableOfTutoring,\n        string tmpWebsite,\n        string tmpIpfsLink,\n        string tmpEmail\n    ) public payable\n    {\n        var tmpTutor = tutors[msg.sender];\n        tmpTutor.name = tmpName;\n        tmpTutor.capableOfTutoring = tmpCapableOfTutoring;\n        tmpTutor.website = tmpWebsite;\n        tmpTutor.ipfsLink = tmpIpfsLink;\n        tmpTutor.email = tmpEmail;\n        tmpTutor.balance = 0;\n        tutors_lookup[current_numbner_of_tutors] = msg.sender;\n        current_numbner_of_tutors = current_numbner_of_tutors + 1;\n\n    }\n    function setName(string tmpName) public {\n        tutors[msg.sender].name = tmpName;\n    }  \n    function setCapableOfTutoring(string tmpCapableOfTutoring) public {\n        tutors[msg.sender].capableOfTutoring = tmpCapableOfTutoring;\n    }  \n    function setWebsite(string tmpWebsite) public {\n        tutors[msg.sender].website = tmpWebsite;\n    }  \n    function setIpfsLink(string tmpIpfsLink) public {\n        tutors[msg.sender].ipfsLink = tmpIpfsLink;\n    }  \n    function setEmail(string tmpEmail) public {\n        tutors[msg.sender].email = tmpEmail;\n    }\n}",
  "sourcePath": "/media/paul/2TBDrive/Projects2018/BlockchainTutors/TruffleWorkspace/contracts/CreateTutor/CreateTutor.sol",
  "compiler": {
    "name": "solc",
    "version": "0.4.19+commit.c4cbbb05.Emscripten.clang"
  },
  "schemaVersion": "2.0.0",
  "updatedAt": "2018-03-22T12:21:44.245Z"
}