{
  "contractName": "CreateStudent",
  "abi": [
    {
      "constant": true,
      "inputs": [],
      "name": "owner",
      "outputs": [
        {
          "name": "",
          "type": "address"
        }
      ],
      "payable": false,
      "stateMutability": "view",
      "type": "function"
    },
    {
      "constant": true,
      "inputs": [
        {
          "name": "",
          "type": "address"
        }
      ],
      "name": "students",
      "outputs": [
        {
          "name": "name",
          "type": "string"
        },
        {
          "name": "balance",
          "type": "uint256"
        },
        {
          "name": "needTutorFor",
          "type": "string"
        },
        {
          "name": "email",
          "type": "string"
        }
      ],
      "payable": false,
      "stateMutability": "view",
      "type": "function"
    },
    {
      "inputs": [],
      "payable": false,
      "stateMutability": "nonpayable",
      "type": "constructor"
    },
    {
      "constant": false,
      "inputs": [
        {
          "name": "tmpName",
          "type": "string"
        },
        {
          "name": "needTutorFor",
          "type": "string"
        },
        {
          "name": "tmpEmail",
          "type": "string"
        }
      ],
      "name": "createNewStudent",
      "outputs": [],
      "payable": true,
      "stateMutability": "payable",
      "type": "function"
    },
    {
      "constant": false,
      "inputs": [
        {
          "name": "tmpName",
          "type": "string"
        }
      ],
      "name": "setName",
      "outputs": [],
      "payable": false,
      "stateMutability": "nonpayable",
      "type": "function"
    },
    {
      "constant": false,
      "inputs": [
        {
          "name": "tmpNeedTutorFor",
          "type": "string"
        }
      ],
      "name": "setCapableOfTutoring",
      "outputs": [],
      "payable": false,
      "stateMutability": "nonpayable",
      "type": "function"
    },
    {
      "constant": false,
      "inputs": [
        {
          "name": "tmpEmail",
          "type": "string"
        }
      ],
      "name": "setEmail",
      "outputs": [],
      "payable": false,
      "stateMutability": "nonpayable",
      "type": "function"
    }
  ],
  "bytecode": "0x6060604052341561000f57600080fd5b33600160006101000a81548173ffffffffffffffffffffffffffffffffffffffff021916908373ffffffffffffffffffffffffffffffffffffffff1602179055506107758061005f6000396000f300606060405260043610610078576000357c0100000000000000000000000000000000000000000000000000000000900463ffffffff168063282b065a1461007d5780634caf52c5146100da5780638da5cb5b146101b2578063a6c807a914610207578063c47f0027146103ef578063d5a2f0b41461044c575b600080fd5b341561008857600080fd5b6100d8600480803590602001908201803590602001908080601f016020809104026020016040519081016040528093929190818152602001838380828437820191505050505050919050506104a9565b005b6101b0600480803590602001908201803590602001908080601f0160208091040260200160405190810160405280939291908181526020018383808284378201915050505050509190803590602001908201803590602001908080601f0160208091040260200160405190810160405280939291908181526020018383808284378201915050505050509190803590602001908201803590602001908080601f01602080910402602001604051908101604052809392919081815260200183838082843782019150505050505091905050610502565b005b34156101bd57600080fd5b6101c561059f565b604051808273ffffffffffffffffffffffffffffffffffffffff1673ffffffffffffffffffffffffffffffffffffffff16815260200191505060405180910390f35b341561021257600080fd5b61023e600480803573ffffffffffffffffffffffffffffffffffffffff169060200190919050506105c5565b604051808060200185815260200180602001806020018481038452888181546001816001161561010002031660029004815260200191508054600181600116156101000203166002900480156102d55780601f106102aa576101008083540402835291602001916102d5565b820191906000526020600020905b8154815290600101906020018083116102b857829003601f168201915b50508481038352868181546001816001161561010002031660029004815260200191508054600181600116156101000203166002900480156103585780601f1061032d57610100808354040283529160200191610358565b820191906000526020600020905b81548152906001019060200180831161033b57829003601f168201915b50508481038252858181546001816001161561010002031660029004815260200191508054600181600116156101000203166002900480156103db5780601f106103b0576101008083540402835291602001916103db565b820191906000526020600020905b8154815290600101906020018083116103be57829003601f168201915b505097505050505050505060405180910390f35b34156103fa57600080fd5b61044a600480803590602001908201803590602001908080601f016020809104026020016040519081016040528093929190818152602001838380828437820191505050505050919050506105f2565b005b341561045757600080fd5b6104a7600480803590602001908201803590602001908080601f0160208091040260200160405190810160405280939291908181526020018383808284378201915050505050509190505061064b565b005b806000803373ffffffffffffffffffffffffffffffffffffffff1673ffffffffffffffffffffffffffffffffffffffff16815260200190815260200160002060030190805190602001906104fe9291906106a4565b5050565b60008060003373ffffffffffffffffffffffffffffffffffffffff1673ffffffffffffffffffffffffffffffffffffffff16815260200190815260200160002090508381600001908051906020019061055c9291906106a4565b50828160020190805190602001906105759291906106a4565b508181600301908051906020019061058e9291906106a4565b506000816001018190555050505050565b600160009054906101000a900473ffffffffffffffffffffffffffffffffffffffff1681565b60006020528060005260406000206000915090508060000190806001015490806002019080600301905084565b806000803373ffffffffffffffffffffffffffffffffffffffff1673ffffffffffffffffffffffffffffffffffffffff16815260200190815260200160002060000190805190602001906106479291906106a4565b5050565b806000803373ffffffffffffffffffffffffffffffffffffffff1673ffffffffffffffffffffffffffffffffffffffff16815260200190815260200160002060020190805190602001906106a09291906106a4565b5050565b828054600181600116156101000203166002900490600052602060002090601f016020900481019282601f106106e557805160ff1916838001178555610713565b82800160010185558215610713579182015b828111156107125782518255916020019190600101906106f7565b5b5090506107209190610724565b5090565b61074691905b8082111561074257600081600090555060010161072a565b5090565b905600a165627a7a7230582043038c142a39d066e406ce28dcbbbea04f924b0a9b388bf41d515da1490392550029",
  "source": "pragma solidity ^0.4.16;\n\ncontract CreateStudent {\n    \n    struct Student {\n        string name;\n        uint balance;\n        string needTutorFor ;\n        string email;\n    }\n\n    mapping (address => Student) public students;\n    address public owner;\n    function CreateStudent() public {\n        owner = msg.sender;\n    }\n    function createNewStudent(\n        string tmpName,\n        string needTutorFor,\n        string tmpEmail\n    ) public payable\n    {\n        var tmpTutor = students[msg.sender];\n        tmpTutor.name = tmpName;\n        tmpTutor.needTutorFor = needTutorFor;\n        tmpTutor.email = tmpEmail;\n        tmpTutor.balance = 0;\n    }\n    function setName(string tmpName) public {\n        students[msg.sender].name = tmpName;\n    }  \n    function setCapableOfTutoring(string tmpNeedTutorFor) public {\n        students[msg.sender].needTutorFor = tmpNeedTutorFor;\n    } \n    function setEmail(string tmpEmail) public {\n        students[msg.sender].email = tmpEmail;\n    }\n}\n",
  "sourcePath": "/media/paul/2TBDrive/Projects2018/BlockchainTutors/TruffleWorkspace/contracts/CreateStudent/CreateStudent.sol",
  "compiler": {
    "name": "solc",
    "version": "0.4.19+commit.c4cbbb05.Emscripten.clang"
  },
  "schemaVersion": "2.0.0",
  "updatedAt": "2018-03-17T15:59:29.643Z"
}