{
  "contractName": "InvoiceGenerator",
  "abi": [
    {
      "constant": false,
      "inputs": [
        {
          "name": "tmp_student",
          "type": "address"
        },
        {
          "name": "_amount",
          "type": "uint32"
        },
        {
          "name": "_what_for",
          "type": "string"
        }
      ],
      "name": "create_invoice",
      "outputs": [],
      "payable": false,
      "stateMutability": "nonpayable",
      "type": "function"
    },
    {
      "constant": false,
      "inputs": [
        {
          "name": "invoice_number",
          "type": "uint32"
        },
        {
          "name": "_comment",
          "type": "string"
        }
      ],
      "name": "pay_invoice",
      "outputs": [],
      "payable": true,
      "stateMutability": "payable",
      "type": "function"
    }
  ],
  "bytecode": "0x60606040526000600160006101000a81548163ffffffff021916908363ffffffff160217905550341561003157600080fd5b6104e9806100406000396000f30060606040526004361061004c576000357c0100000000000000000000000000000000000000000000000000000000900463ffffffff168063b1526cea14610051578063b1a297fd146100dc575b600080fd5b341561005c57600080fd5b6100da600480803573ffffffffffffffffffffffffffffffffffffffff1690602001909190803563ffffffff1690602001909190803590602001908201803590602001908080601f0160208091040260200160405190810160405280939291908181526020018383808284378201915050505050509190505061013d565b005b61013b600480803563ffffffff1690602001909190803590602001908201803590602001908080601f016020809104026020016040519081016040528093929190818152602001838380828437820191505050505050919050506102f8565b005b33600080600160009054906101000a900463ffffffff1663ffffffff1663ffffffff16815260200190815260200160002060000160006101000a81548173ffffffffffffffffffffffffffffffffffffffff021916908373ffffffffffffffffffffffffffffffffffffffff16021790555082600080600160009054906101000a900463ffffffff1663ffffffff1663ffffffff16815260200190815260200160002060010160006101000a81548173ffffffffffffffffffffffffffffffffffffffff021916908373ffffffffffffffffffffffffffffffffffffffff1602179055508163ffffffff16600080600160009054906101000a900463ffffffff1663ffffffff1663ffffffff1681526020019081526020016000206002018190555080600080600160009054906101000a900463ffffffff1663ffffffff1663ffffffff16815260200190815260200160002060030190805190602001906102a6929190610418565b506000806000600160009054906101000a900463ffffffff1663ffffffff1663ffffffff16815260200190815260200160002060050160006101000a81548160ff021916908315150217905550505050565b346000808463ffffffff1663ffffffff16815260200190815260200160002060020154111515610414576000808363ffffffff1663ffffffff16815260200190815260200160002060000160009054906101000a900473ffffffffffffffffffffffffffffffffffffffff1673ffffffffffffffffffffffffffffffffffffffff166108fc349081150290604051600060405180830381858888f1935050505015156103a357600080fd5b806000808463ffffffff1663ffffffff16815260200190815260200160002060040190805190602001906103d8929190610418565b5060016000808463ffffffff1663ffffffff16815260200190815260200160002060050160006101000a81548160ff0219169083151502179055505b5050565b828054600181600116156101000203166002900490600052602060002090601f016020900481019282601f1061045957805160ff1916838001178555610487565b82800160010185558215610487579182015b8281111561048657825182559160200191906001019061046b565b5b5090506104949190610498565b5090565b6104ba91905b808211156104b657600081600090555060010161049e565b5090565b905600a165627a7a7230582072868fe189a95c09b6eeec2c6c82a4d8898aa28da8d9647c9d556e4617ecd5440029",
  "source": "pragma solidity ^0.4.16;\n\ncontract InvoiceGenerator {\n\n    struct Invoice \n    {\n        address from;//This user needs the money\n        address reciepient;//This person has to pay them\n        uint256 amount;\n        string from_comment;\n        string reciepient_comment;\n        bool completed;\n    }\n    mapping (uint32 => Invoice) invoices;\n    uint32 next_invoice_num = 0;\n    function create_invoice(address tmp_student, uint32 _amount, string _what_for) public\n    {\n        invoices[next_invoice_num].from = msg.sender;\n        invoices[next_invoice_num].reciepient = tmp_student;\n        invoices[next_invoice_num].amount = _amount;\n        invoices[next_invoice_num].from_comment = _what_for;\n        invoices[next_invoice_num].completed = false;\n    }\n    function pay_invoice(uint32 invoice_number, string _comment) public payable\n    {\n        if(invoices[invoice_number].amount <= msg.value)\n        {\n            invoices[invoice_number].from.transfer(msg.value);\n            invoices[invoice_number].reciepient_comment = _comment;\n            invoices[invoice_number].completed = true;\n        }\n    }\n}\n",
  "sourcePath": "/media/paul/2TBDrive/Projects2018/BlockchainTutors/TruffleWorkspace/contracts/InvoiceGenerator/InvoiceGenerator.sol",
  "compiler": {
    "name": "solc",
    "version": "0.4.19+commit.c4cbbb05.Emscripten.clang"
  },
  "schemaVersion": "2.0.0",
  "updatedAt": "2018-03-17T15:09:39.171Z"
}