{
  "contractName": "InvoiceGenerator",
  "abi": [
    {
      "constant": false,
      "inputs": [
        {
          "name": "tmp_student",
          "type": "address"
        },
        {
          "name": "_amount",
          "type": "uint256"
        },
        {
          "name": "_what_for",
          "type": "string"
        }
      ],
      "name": "create_invoice",
      "outputs": [],
      "payable": false,
      "stateMutability": "nonpayable",
      "type": "function"
    },
    {
      "constant": false,
      "inputs": [],
      "name": "update_balance",
      "outputs": [],
      "payable": true,
      "stateMutability": "payable",
      "type": "function"
    },
    {
      "constant": false,
      "inputs": [
        {
          "name": "_amount",
          "type": "uint256"
        },
        {
          "name": "_reciever",
          "type": "address"
        }
      ],
      "name": "withdrawl",
      "outputs": [],
      "payable": false,
      "stateMutability": "nonpayable",
      "type": "function"
    },
    {
      "constant": false,
      "inputs": [
        {
          "name": "_invoice_number",
          "type": "uint32"
        },
        {
          "name": "_comment",
          "type": "string"
        }
      ],
      "name": "pay_invoice",
      "outputs": [],
      "payable": false,
      "stateMutability": "nonpayable",
      "type": "function"
    }
  ],
  "bytecode": "0x60606040526000600460006101000a81548163ffffffff021916908363ffffffff160217905550341561003157600080fd5b6109a4806100406000396000f300606060405260043610610062576000357c0100000000000000000000000000000000000000000000000000000000900463ffffffff168063336c835b1461006757806378773eb8146100ec578063b1a297fd1461012e578063c21331361461019a575b600080fd5b341561007257600080fd5b6100ea600480803573ffffffffffffffffffffffffffffffffffffffff1690602001909190803590602001909190803590602001908201803590602001908080601f016020809104026020016040519081016040528093929190818152602001838380828437820191505050505050919050506101a4565b005b34156100f757600080fd5b61012c600480803590602001909190803573ffffffffffffffffffffffffffffffffffffffff169060200190919050506104c7565b005b341561013957600080fd5b610198600480803563ffffffff1690602001909190803590602001908201803590602001908080601f016020809104026020016040519081016040528093929190818152602001838380828437820191505050505050919050506105d9565b005b6101a261084a565b005b33600080600460009054906101000a900463ffffffff1663ffffffff1663ffffffff16815260200190815260200160002060000160006101000a81548173ffffffffffffffffffffffffffffffffffffffff021916908373ffffffffffffffffffffffffffffffffffffffff16021790555082600080600460009054906101000a900463ffffffff1663ffffffff1663ffffffff16815260200190815260200160002060010160006101000a81548173ffffffffffffffffffffffffffffffffffffffff021916908373ffffffffffffffffffffffffffffffffffffffff16021790555081600080600460009054906101000a900463ffffffff1663ffffffff1663ffffffff1681526020019081526020016000206002018190555080600080600460009054906101000a900463ffffffff1663ffffffff1663ffffffff1681526020019081526020016000206003019080519060200190610307929190610899565b506000806000600460009054906101000a900463ffffffff1663ffffffff1663ffffffff16815260200190815260200160002060050160006101000a81548160ff021916908315150217905550600160003373ffffffffffffffffffffffffffffffffffffffff1673ffffffffffffffffffffffffffffffffffffffff16815260200190815260200160002080548060010182816103a59190610919565b9160005260206000209060089182820401919006600402600460009054906101000a900463ffffffff16909190916101000a81548163ffffffff021916908363ffffffff16021790555050600260008473ffffffffffffffffffffffffffffffffffffffff1673ffffffffffffffffffffffffffffffffffffffff16815260200190815260200160002080548060010182816104419190610919565b9160005260206000209060089182820401919006600402600460009054906101000a900463ffffffff16909190916101000a81548163ffffffff021916908363ffffffff160217905550506001600460009054906101000a900463ffffffff1601600460006101000a81548163ffffffff021916908363ffffffff160217905550505050565b600360003373ffffffffffffffffffffffffffffffffffffffff1673ffffffffffffffffffffffffffffffffffffffff16815260200190815260200160002054821115156105d55781600360003373ffffffffffffffffffffffffffffffffffffffff1673ffffffffffffffffffffffffffffffffffffffff1681526020019081526020016000205403600360003373ffffffffffffffffffffffffffffffffffffffff1673ffffffffffffffffffffffffffffffffffffffff168152602001908152602001600020819055508073ffffffffffffffffffffffffffffffffffffffff166108fc839081150290604051600060405180830381858888f1935050505015156105d457600080fd5b5b5050565b6000808363ffffffff1663ffffffff16815260200190815260200160002060010160009054906101000a900473ffffffffffffffffffffffffffffffffffffffff1673ffffffffffffffffffffffffffffffffffffffff163373ffffffffffffffffffffffffffffffffffffffff16141561084657600360003373ffffffffffffffffffffffffffffffffffffffff1673ffffffffffffffffffffffffffffffffffffffff168152602001908152602001600020546000808463ffffffff1663ffffffff16815260200190815260200160002060020154111515610845576000808363ffffffff1663ffffffff16815260200190815260200160002060020154600360003373ffffffffffffffffffffffffffffffffffffffff1673ffffffffffffffffffffffffffffffffffffffff168152602001908152602001600020600082825403925050819055506000808363ffffffff1663ffffffff16815260200190815260200160002060020154600360008060008663ffffffff1663ffffffff16815260200190815260200160002060000160009054906101000a900473ffffffffffffffffffffffffffffffffffffffff1673ffffffffffffffffffffffffffffffffffffffff1673ffffffffffffffffffffffffffffffffffffffff16815260200190815260200160002060008282540192505081905550806000808463ffffffff1663ffffffff1681526020019081526020016000206004019080519060200190610809929190610899565b5060016000808463ffffffff1663ffffffff16815260200190815260200160002060050160006101000a81548160ff0219169083151502179055505b5b5050565b34600360003373ffffffffffffffffffffffffffffffffffffffff1673ffffffffffffffffffffffffffffffffffffffff16815260200190815260200160002060008282540192505081905550565b828054600181600116156101000203166002900490600052602060002090601f016020900481019282601f106108da57805160ff1916838001178555610908565b82800160010185558215610908579182015b828111156109075782518255916020019190600101906108ec565b5b5090506109159190610953565b5090565b81548183558181151161094e57600701600890048160070160089004836000526020600020918201910161094d9190610953565b5b505050565b61097591905b80821115610971576000816000905550600101610959565b5090565b905600a165627a7a72305820fa8b48b5626795480b2c3d45202ddfc7ecae83d9da9caabc4cedcfdf0d85a2990029",
  "source": "pragma solidity ^0.4.16;\n\ncontract InvoiceGenerator {\n\n    struct Invoice \n    {\n        address from;//This user needs the money\n        address reciepient;//This person has to pay them\n        uint256 amount;\n        string from_comment;\n        string reciepient_comment;\n        bool completed;\n    }\n    mapping (uint32 => Invoice) invoices;\n    mapping (address => uint32[]) from_invoice_lookup;\n    mapping (address => uint32[]) reciepient_invoice_lookup;\n    mapping (address => uint256) balances;\n    uint32 next_invoice_num = 0;\n    function create_invoice(address tmp_student, uint256 _amount, string _what_for) public\n    {\n        invoices[next_invoice_num].from = msg.sender;\n        invoices[next_invoice_num].reciepient = tmp_student;\n        invoices[next_invoice_num].amount = _amount;\n        invoices[next_invoice_num].from_comment = _what_for;\n        invoices[next_invoice_num].completed = false;\n        from_invoice_lookup[msg.sender].push(next_invoice_num);\n        reciepient_invoice_lookup[tmp_student].push(next_invoice_num);\n        next_invoice_num = next_invoice_num + 1;\n    }\n    function update_balance() public payable{\n        balances[msg.sender] += msg.value;\n    }\n    function withdrawl(uint256 _amount, address _reciever) public {\n        if(_amount <= balances[msg.sender]){\n            balances[msg.sender] = balances[msg.sender] - _amount;\n            _reciever.transfer(_amount);\n        }\n    }\n    function pay_invoice(uint32 _invoice_number, string _comment) public\n    {\n        if(msg.sender == invoices[_invoice_number].reciepient ){\n            if(invoices[_invoice_number].amount <= balances[msg.sender])\n            {\n                balances[msg.sender] -= invoices[_invoice_number].amount;\n                balances[invoices[_invoice_number].from] += invoices[_invoice_number].amount;\n                invoices[_invoice_number].reciepient_comment = _comment;\n                invoices[_invoice_number].completed = true;\n            }\n        }\n    }\n}\n",
  "sourcePath": "/media/paul/2TBDrive/Projects2018/BlockchainTutors/TruffleWorkspace/contracts/InvoiceGenerator/InvoiceGenerator.sol",
  "compiler": {
    "name": "solc",
    "version": "0.4.19+commit.c4cbbb05.Emscripten.clang"
  },
  "schemaVersion": "2.0.0",
  "updatedAt": "2018-03-24T20:03:05.074Z"
}