{
  "contractName": "InvoiceGenerator",
  "abi": [
    {
      "constant": true,
      "inputs": [
        {
          "name": "",
          "type": "address"
        },
        {
          "name": "",
          "type": "uint256"
        }
      ],
      "name": "reciepient_invoice_lookup",
      "outputs": [
        {
          "name": "",
          "type": "uint32"
        }
      ],
      "payable": false,
      "stateMutability": "view",
      "type": "function"
    },
    {
      "constant": true,
      "inputs": [
        {
          "name": "",
          "type": "address"
        }
      ],
      "name": "balances",
      "outputs": [
        {
          "name": "",
          "type": "uint256"
        }
      ],
      "payable": false,
      "stateMutability": "view",
      "type": "function"
    },
    {
      "constant": true,
      "inputs": [
        {
          "name": "",
          "type": "uint32"
        }
      ],
      "name": "invoices",
      "outputs": [
        {
          "name": "from",
          "type": "address"
        },
        {
          "name": "reciepient",
          "type": "address"
        },
        {
          "name": "amount",
          "type": "uint256"
        },
        {
          "name": "from_comment",
          "type": "string"
        },
        {
          "name": "reciepient_comment",
          "type": "string"
        },
        {
          "name": "completed",
          "type": "bool"
        }
      ],
      "payable": false,
      "stateMutability": "view",
      "type": "function"
    },
    {
      "constant": true,
      "inputs": [
        {
          "name": "",
          "type": "address"
        },
        {
          "name": "",
          "type": "uint256"
        }
      ],
      "name": "from_invoice_lookup",
      "outputs": [
        {
          "name": "",
          "type": "uint32"
        }
      ],
      "payable": false,
      "stateMutability": "view",
      "type": "function"
    },
    {
      "constant": false,
      "inputs": [
        {
          "name": "tmp_student",
          "type": "address"
        },
        {
          "name": "_amount",
          "type": "uint256"
        },
        {
          "name": "_what_for",
          "type": "string"
        }
      ],
      "name": "create_invoice",
      "outputs": [],
      "payable": false,
      "stateMutability": "nonpayable",
      "type": "function"
    },
    {
      "constant": false,
      "inputs": [],
      "name": "update_balance",
      "outputs": [],
      "payable": true,
      "stateMutability": "payable",
      "type": "function"
    },
    {
      "constant": false,
      "inputs": [
        {
          "name": "_amount",
          "type": "uint256"
        },
        {
          "name": "_reciever",
          "type": "address"
        }
      ],
      "name": "withdrawl",
      "outputs": [],
      "payable": false,
      "stateMutability": "nonpayable",
      "type": "function"
    },
    {
      "constant": false,
      "inputs": [
        {
          "name": "_invoice_number",
          "type": "uint32"
        },
        {
          "name": "_comment",
          "type": "string"
        }
      ],
      "name": "pay_invoice",
      "outputs": [],
      "payable": false,
      "stateMutability": "nonpayable",
      "type": "function"
    }
  ],
  "bytecode": "0x60606040526000600460006101000a81548163ffffffff021916908363ffffffff160217905550341561003157600080fd5b610dd0806100406000396000f30060606040526004361061008e576000357c0100000000000000000000000000000000000000000000000000000000900463ffffffff1680630459f4d11461009357806327e235e3146100f5578063336c835b1461014257806378773eb8146101c7578063b1a297fd14610209578063c213313614610275578063df5342c11461027f578063f226d8ac1461043f575b600080fd5b341561009e57600080fd5b6100d3600480803573ffffffffffffffffffffffffffffffffffffffff169060200190919080359060200190919050506104a1565b604051808263ffffffff1663ffffffff16815260200191505060405180910390f35b341561010057600080fd5b61012c600480803573ffffffffffffffffffffffffffffffffffffffff169060200190919050506104e9565b6040518082815260200191505060405180910390f35b341561014d57600080fd5b6101c5600480803573ffffffffffffffffffffffffffffffffffffffff1690602001909190803590602001909190803590602001908201803590602001908080601f01602080910402602001604051908101604052809392919081815260200183838082843782019150505050505091905050610501565b005b34156101d257600080fd5b610207600480803590602001909190803573ffffffffffffffffffffffffffffffffffffffff16906020019091905050610824565b005b341561021457600080fd5b610273600480803563ffffffff1690602001909190803590602001908201803590602001908080601f01602080910402602001604051908101604052809392919081815260200183838082843782019150505050505091905050610936565b005b61027d610ba7565b005b341561028a57600080fd5b6102a6600480803563ffffffff16906020019091905050610bf6565b604051808773ffffffffffffffffffffffffffffffffffffffff1673ffffffffffffffffffffffffffffffffffffffff1681526020018673ffffffffffffffffffffffffffffffffffffffff1673ffffffffffffffffffffffffffffffffffffffff1681526020018581526020018060200180602001841515151581526020018381038352868181546001816001161561010002031660029004815260200191508054600181600116156101000203166002900480156103a75780601f1061037c576101008083540402835291602001916103a7565b820191906000526020600020905b81548152906001019060200180831161038a57829003601f168201915b505083810382528581815460018160011615610100020316600290048152602001915080546001816001161561010002031660029004801561042a5780601f106103ff5761010080835404028352916020019161042a565b820191906000526020600020905b81548152906001019060200180831161040d57829003601f168201915b50509850505050505050505060405180910390f35b341561044a57600080fd5b61047f600480803573ffffffffffffffffffffffffffffffffffffffff16906020019091908035906020019091905050610c7d565b604051808263ffffffff1663ffffffff16815260200191505060405180910390f35b6002602052816000526040600020818154811015156104bc57fe5b9060005260206000209060089182820401919006600402915091509054906101000a900463ffffffff1681565b60036020528060005260406000206000915090505481565b33600080600460009054906101000a900463ffffffff1663ffffffff1663ffffffff16815260200190815260200160002060000160006101000a81548173ffffffffffffffffffffffffffffffffffffffff021916908373ffffffffffffffffffffffffffffffffffffffff16021790555082600080600460009054906101000a900463ffffffff1663ffffffff1663ffffffff16815260200190815260200160002060010160006101000a81548173ffffffffffffffffffffffffffffffffffffffff021916908373ffffffffffffffffffffffffffffffffffffffff16021790555081600080600460009054906101000a900463ffffffff1663ffffffff1663ffffffff1681526020019081526020016000206002018190555080600080600460009054906101000a900463ffffffff1663ffffffff1663ffffffff1681526020019081526020016000206003019080519060200190610664929190610cc5565b506000806000600460009054906101000a900463ffffffff1663ffffffff1663ffffffff16815260200190815260200160002060050160006101000a81548160ff021916908315150217905550600160003373ffffffffffffffffffffffffffffffffffffffff1673ffffffffffffffffffffffffffffffffffffffff16815260200190815260200160002080548060010182816107029190610d45565b9160005260206000209060089182820401919006600402600460009054906101000a900463ffffffff16909190916101000a81548163ffffffff021916908363ffffffff16021790555050600260008473ffffffffffffffffffffffffffffffffffffffff1673ffffffffffffffffffffffffffffffffffffffff168152602001908152602001600020805480600101828161079e9190610d45565b9160005260206000209060089182820401919006600402600460009054906101000a900463ffffffff16909190916101000a81548163ffffffff021916908363ffffffff160217905550506001600460009054906101000a900463ffffffff1601600460006101000a81548163ffffffff021916908363ffffffff160217905550505050565b600360003373ffffffffffffffffffffffffffffffffffffffff1673ffffffffffffffffffffffffffffffffffffffff16815260200190815260200160002054821115156109325781600360003373ffffffffffffffffffffffffffffffffffffffff1673ffffffffffffffffffffffffffffffffffffffff1681526020019081526020016000205403600360003373ffffffffffffffffffffffffffffffffffffffff1673ffffffffffffffffffffffffffffffffffffffff168152602001908152602001600020819055508073ffffffffffffffffffffffffffffffffffffffff166108fc839081150290604051600060405180830381858888f19350505050151561093157600080fd5b5b5050565b6000808363ffffffff1663ffffffff16815260200190815260200160002060010160009054906101000a900473ffffffffffffffffffffffffffffffffffffffff1673ffffffffffffffffffffffffffffffffffffffff163373ffffffffffffffffffffffffffffffffffffffff161415610ba357600360003373ffffffffffffffffffffffffffffffffffffffff1673ffffffffffffffffffffffffffffffffffffffff168152602001908152602001600020546000808463ffffffff1663ffffffff16815260200190815260200160002060020154111515610ba2576000808363ffffffff1663ffffffff16815260200190815260200160002060020154600360003373ffffffffffffffffffffffffffffffffffffffff1673ffffffffffffffffffffffffffffffffffffffff168152602001908152602001600020600082825403925050819055506000808363ffffffff1663ffffffff16815260200190815260200160002060020154600360008060008663ffffffff1663ffffffff16815260200190815260200160002060000160009054906101000a900473ffffffffffffffffffffffffffffffffffffffff1673ffffffffffffffffffffffffffffffffffffffff1673ffffffffffffffffffffffffffffffffffffffff16815260200190815260200160002060008282540192505081905550806000808463ffffffff1663ffffffff1681526020019081526020016000206004019080519060200190610b66929190610cc5565b5060016000808463ffffffff1663ffffffff16815260200190815260200160002060050160006101000a81548160ff0219169083151502179055505b5b5050565b34600360003373ffffffffffffffffffffffffffffffffffffffff1673ffffffffffffffffffffffffffffffffffffffff16815260200190815260200160002060008282540192505081905550565b60006020528060005260406000206000915090508060000160009054906101000a900473ffffffffffffffffffffffffffffffffffffffff16908060010160009054906101000a900473ffffffffffffffffffffffffffffffffffffffff1690806002015490806003019080600401908060050160009054906101000a900460ff16905086565b600160205281600052604060002081815481101515610c9857fe5b9060005260206000209060089182820401919006600402915091509054906101000a900463ffffffff1681565b828054600181600116156101000203166002900490600052602060002090601f016020900481019282601f10610d0657805160ff1916838001178555610d34565b82800160010185558215610d34579182015b82811115610d33578251825591602001919060010190610d18565b5b509050610d419190610d7f565b5090565b815481835581811511610d7a576007016008900481600701600890048360005260206000209182019101610d799190610d7f565b5b505050565b610da191905b80821115610d9d576000816000905550600101610d85565b5090565b905600a165627a7a7230582029763ee739eb609ce5d63863ab42e5d5ddaa9419913daafb0e0ed0edab2abd150029",
  "source": "pragma solidity ^0.4.16;\n\ncontract InvoiceGenerator {\n\n    struct Invoice \n    {\n        address from;//This user needs the money\n        address reciepient;//This person has to pay them\n        uint256 amount;\n        string from_comment;\n        string reciepient_comment;\n        bool completed;\n    }\n    mapping (uint32 => Invoice) public invoices;\n    mapping (address => uint32[]) public from_invoice_lookup;\n    mapping (address => uint32[]) public reciepient_invoice_lookup;\n    mapping (address => uint256) public balances;\n    uint32 next_invoice_num = 0;\n    function create_invoice(address tmp_student, uint256 _amount, string _what_for) public {\n        invoices[next_invoice_num].from = msg.sender;\n        invoices[next_invoice_num].reciepient = tmp_student;\n        invoices[next_invoice_num].amount = _amount;\n        invoices[next_invoice_num].from_comment = _what_for;\n        invoices[next_invoice_num].completed = false;\n        from_invoice_lookup[msg.sender].push(next_invoice_num);\n        reciepient_invoice_lookup[tmp_student].push(next_invoice_num);\n        next_invoice_num = next_invoice_num + 1;\n    }\n    function update_balance() public payable{\n        balances[msg.sender] += msg.value;\n    }\n    function withdrawl(uint256 _amount, address _reciever) public {\n        if(_amount <= balances[msg.sender]){\n            balances[msg.sender] = balances[msg.sender] - _amount;\n            _reciever.transfer(_amount);\n        }\n    }\n    function pay_invoice(uint32 _invoice_number, string _comment) public {\n        if(msg.sender == invoices[_invoice_number].reciepient ){\n            if(invoices[_invoice_number].amount <= balances[msg.sender])\n            {\n                balances[msg.sender] -= invoices[_invoice_number].amount;\n                balances[invoices[_invoice_number].from] += invoices[_invoice_number].amount;\n                invoices[_invoice_number].reciepient_comment = _comment;\n                invoices[_invoice_number].completed = true;\n            }\n        }\n    }\n}\n",
  "sourcePath": "/media/paul/2TBDrive/Projects2018/BlockchainTutors/TruffleWorkspace/contracts/InvoiceGenerator/InvoiceGenerator.sol",
  "compiler": {
    "name": "solc",
    "version": "0.4.19+commit.c4cbbb05.Emscripten.clang"
  },
  "schemaVersion": "2.0.0",
  "updatedAt": "2018-03-26T12:51:18.082Z"
}